:020000040800F2
:10000000005000207D3A00084137000843370008BF
:10001000453700084737000849370008000000004E
:100020000000000000000000000000004B37000846
:100030004D370008000000004F370008593B00080A
:10004000C53A0008C53A0008C53A0008C53A000894
:10005000C53A0008C53A0008C53A0008C53A000884
:10006000C53A0008C53A0008C53A0008C53A000874
:10007000C53A0008C53A000851370008C53A0008DB
:10008000C53A0008C53A0008C53A0008C53A000854
:10009000C53A0008C53A0008C53A0008C53A000844
:1000A000C53A0008C53A0008C53A0008C53A000834
:1000B00061370008C53A0008C53A0008C53A00088B
:1000C000C53A0008C53A0008C53A0008C53A000814
:1000D000C53A000871370008C53A0008C53A00085B
:1000E000C53A0008C53A0008C53A000800000000FB
:1000F0000000000000000000000000000000000000
:0C01000000000000000000005FF808F1A3
:1001100081F0004102E000BF83F0004330B54FEAB8
:1001200041044FEA430594EA050F08BF90EA020F25
:100130001FBF54EA000C55EA020C7FEA645C7FEAB8
:10014000655C00F0E2804FEA5454D4EB5555B8BFDB
:100150006D420CDD2C4480EA020281EA030382EA4C
:10016000000083EA010180EA020281EA0303362DDE
:1001700088BF30BD11F0004F4FEA01314FF4801CB1
:100180004CEA113102D0404261EB410113F0004FC3
:100190004FEA03334CEA133302D0524263EB43037A
:1001A00094EA050F00F0A780A4F10104D5F1200E18
:1001B0000DDB02FA0EFC22FA05F2801841F1000173
:1001C00003FA0EF2801843FA05F359410EE0A5F147
:1001D00020050EF1200E012A03FA0EFC28BF4CF078
:1001E000020C43FA05F3C01851EBE37101F000452E
:1001F00007D54FF0000EDCF1000C7EEB00006EEB3B
:100200000101B1F5801F1BD3B1F5001F0CD34908C4
:100210005FEA30004FEA3C0C04F101044FEA44521B
:1002200012F5800F80F09A80BCF1004F08BF5FEAA2
:10023000500C50F1000041EB045141EA050130BD82
:100240005FEA4C0C404141EB0101013C28BFB1F594
:10025000801FE9D291F0000F04BF01460020B1FADF
:1002600081F308BF2033A3F10B03B3F120020CDAB2
:100270000C3208DD02F1140CC2F10C0201FA0CF090
:1002800021FA02F10CE002F11402D8BFC2F1200CF5
:1002900001FA02F120FA0CFCDCBF41EA0C019040AB
:1002A000E41AA2BF01EB0451294330BD6FEA0404F4
:1002B0001F3C1CDA0C340EDC04F11404C4F12002DF
:1002C00020FA04F001FA02F340EA030021FA04F3F1
:1002D00045EA030130BDC4F10C04C4F1200220FA48
:1002E00002F001FA04F340EA0300294630BD21FA86
:1002F00004F0294630BD94F0000F83F4801306BF4C
:1003000081F480110134013D4EE77FEA645C18BF3F
:100310007FEA655C29D094EA050F08BF90EA020FD6
:1003200005D054EA000C04BF1946104630BD91EACE
:10033000030F1EBF0021002030BD5FEA545C05D1D1
:100340004000494128BF41F0004130BD14F5800410
:100350003CBF01F5801130BD01F0004545F0FE4184
:1003600041F470014FF0000030BD7FEA645C1ABFB9
:10037000194610467FEA655C1CBF0B46024650EAF0
:10038000013406BF52EA033591EA030F41F400211C
:1003900030BD00BF90F0000F04BF0021704730B5A2
:1003A0004FF4806404F132044FF000054FF0000177
:1003B00050E700BF90F0000F04BF0021704730B538
:1003C0004FF4806404F1320410F0004548BF40420D
:1003D0004FF000013EE700BF42004FEAE2014FEA62
:1003E00031014FEA02701FBF12F07F4393F07F4F3D
:1003F00081F06051704732F07F4208BF704793F040
:100400007F4F04BF41F40021704730B54FF4607452
:1004100001F0004521F000411CE700BF50EA010255
:1004200008BF704730B54FF000050AE050EA0102FE
:1004300008BF704730B511F0004502D5404261EB6E
:1004400041014FF4806404F132045FEA915C3FF4AF
:10045000D8AE4FF003025FEADC0C18BF03325FEA4C
:10046000DC0C18BF033202EBDC02C2F1200300FAFD
:1004700003FC20FA02F001FA03FE40EA0E0021FA22
:1004800002F11444BDE600BF80F0004002E000BF6E
:1004900081F0004142001FBF5FEA410392EA030F6F
:1004A0007FEA226C7FEA236C6AD04FEA1262D2EBB9
:1004B0001363C1BFD218414048404140B8BF5B42BE
:1004C000192B88BF704710F0004F40F4000020F057
:1004D0007F4018BF404211F0004F41F4000121F06D
:1004E0007F4118BF494292EA030F3FD0A2F10102B7
:1004F00041FA03FC10EB0C00C3F1200301FA03F1F5
:1005000000F0004302D5494260EB4000B0F5000F17
:1005100013D3B0F1807F06D340084FEA310102F1D6
:100520000102FE2A51D2B1F1004F40EBC25008BF88
:1005300020F0010040EA03007047490040EB000052
:10054000013A28BFB0F5000FEDD2B0FA80FCACF153
:10055000080CB2EB0C0200FA0CF0AABF00EBC25080
:1005600052421843BCBFD0401843704792F0000F6E
:1005700081F4000106BF80F400000132013BB5E7C1
:100580004FEA41037FEA226C18BF7FEA236C21D037
:1005900092EA030F04D092F0000F08BF084670479C
:1005A00090EA010F1CBF0020704712F07F4F04D16A
:1005B000400028BF40F00040704712F100723CBF7D
:1005C00000F50000704700F0004343F0FE4040F4A7
:1005D000000070477FEA226216BF08467FEA236365
:1005E0000146420206BF5FEA412390EA010F40F450
:1005F000800070474FF0000304E000BF10F000439C
:1006000048BF40425FEA000C08BF704743F0964382
:1006100001464FF000001CE050EA010208BF70479D
:100620004FF000030AE000BF50EA010208BF704724
:1006300011F0004302D5404261EB41015FEA010C39
:1006400002BF84460146002043F0B64308BFA3F131
:100650008053A3F50003BCFA8CF2083AA3EBC25313
:1006600010DB01FA02FC634400FA02FCC2F1200232
:10067000BCF1004F20FA02F243EB020008BF20F069
:100680000100704702F1200201FA02FCC2F12002CF
:1006900050EA4C0021FA02F243EB020008BF20EAC4
:1006A000DC7070474FF0FF0C1CEAD0521EBF1CEAF2
:1006B000D15392EA0C0F93EA0C0F6FD01A4480EAE0
:1006C000010C400218BF5FEA41211ED04FF00063C9
:1006D00043EA501043EA5111A0FB01310CF00040F5
:1006E000B1F5000F3EBF490041EAD3715B0040EA1B
:1006F000010062F17F02FD2A1DD8B3F1004F40EBEB
:10070000C25008BF20F00100704790F0000F0CF0BD
:10071000004C08BF49024CEA502040EA51207F3A81
:10072000C2BFD2F1FF0340EAC250704740F400005C
:100730004FF00003013A5DDC12F1190FDCBF00F04D
:1007400000407047C2F10002410021FA02F1C2F1FB
:10075000200200FA02FC5FEA310040F1000053EA97
:100760004C0308BF20EADC70704792F0000F00F0E5
:10077000004C02BF400010F4000F013AF9D040EAEB
:100780000C0093F0000F01F0004C02BF490011F47F
:10079000000F013BF9D041EA0C018FE70CEAD1537D
:1007A00092EA0C0F18BF93EA0C0F0AD030F0004CFD
:1007B00018BF31F0004CD8D180EA010000F00040B1
:1007C000704790F0000F17BF90F0004F084691F06F
:1007D000000F91F0004F14D092EA0C0F01D14202A9
:1007E0000FD193EA0C0F03D14B0218BF084608D172
:1007F00080EA010000F0004040F0FE4040F40000BC
:10080000704740F0FE4040F4400070474FF0FF0C4E
:100810001CEAD0521EBF1CEAD15392EA0C0F93EA95
:100820000C0F69D0A2EB030280EA010C49024FEAE7
:10083000402037D04FF0805343EA111143EA1013A0
:100840000CF000408B4238BF5B0042F17D024FF458
:10085000000C8B4224BF5B1A40EA0C00B3EB510F33
:1008600024BFA3EB510340EA5C00B3EB910F24BF1C
:10087000A3EB910340EA9C00B3EBD10F24BFA3EBA1
:10088000D10340EADC001B0118BF5FEA1C1CE0D169
:10089000FD2A3FF650AF8B4240EBC25008BF20F01C
:1008A000010070470CF0004C4CEA50207F32C2BF70
:1008B000D2F1FF0340EAC250704740F400004FF00D
:1008C0000003013A37E792F0000F00F0004C02BF3E
:1008D000400010F4000F013AF9D040EA0C0093F008
:1008E000000F01F0004C02BF490011F4000F013B62
:1008F000F9D041EA0C0195E70CEAD15392EA0C0FCA
:1009000008D142027FF47DAF93EA0C0F7FF470AF01
:10091000084676E793EA0C0F04D14B023FF44CAF44
:1009200008466EE730F0004C18BF31F0004CCAD1D9
:1009300030F000427FF45CAF31F000437FF43CAF15
:100940005FE700BF4FF0FF3C06E000BF4FF0010C37
:1009500002E000BF4FF0010C4DF804CD4FEA400219
:100960004FEA41037FEA226C18BF7FEA236C11D063
:1009700001B052EA530C18BF90EA010F58BFB2EB16
:10098000030088BFC81738BF6FEAE17018BF40F096
:10099000010070477FEA226C02D15FEA402C05D14A
:1009A0007FEA236CE4D15FEA412CE1D05DF8040BCF
:1009B000704700BF844608466146FFE70FB5FFF762
:1009C000C9FF002848BF10F1000F0FBD4DF808ED1A
:1009D000FFF7F4FF0CBF012000205DF808FB00BF0B
:1009E0004DF808EDFFF7EAFF34BF012000205DF865
:1009F00008FB00BF4DF808EDFFF7E0FF94BF0120B2
:100A000000205DF808FB00BF4DF808EDFFF7D2FFAE
:100A100094BF012000205DF808FB00BF4DF808EDF1
:100A2000FFF7C8FF34BF012000205DF808FB00BFBE
:100A30004FEA4002B2F1FE4F0FD34FF09E03B3EBEB
:100A400012620DD94FEA002343F0004310F0004F2B
:100A500023FA02F018BF404270474FF00000704781
:100A600012F1610F01D1420205D110F0004008BF20
:100A70006FF0004070474FF00000704780EA010CB3
:100A80001CF0030F37D110F0030C20F0030021F00D
:100A9000030150F8042B08BF51F8043B0ED08CF032
:100AA000030C6FF07F434FEACC0C23FA0CFC51F897
:100AB000043B42EA0C0243EA0C0300BFA2F1013CF2
:100AC0009A4201BF2CEA020C1CF0803F50F8042B24
:100AD00051F8043BF2D04FEA02604FEA122201289B
:100AE00028BFB0EB036F08BF1B0AF4D003F0FF036D
:100AF000000EC01A704710F0030F0AD010F8012B37
:100B000011F8013B012A28BF9A42F4D0A2EB03005E
:100B100070474DF8045D50F8042B01F0030521F0F7
:100B2000030151F8043B022D26D04DD822F07F4519
:100B3000B5EB132FA2F1013C2CEA020C0DD11CF0F5
:100B4000803C08BF51F8043B0AD185EA0205B5EBA9
:100B5000036F0CD150F8042BE8E74FEA13235BE056
:100B60003CF07F4C54D10B784FEA126554E04FEAC9
:100B7000126503F0FF034FE04FEA0245A2F1013C8A
:100B80004FEA15452CEA020CB5EB134F18D11CF0B7
:100B9000803C08BF51F8043B07D185EA0205B5EB5C
:100BA000034F09D150F8042BE6E75FEA0C4C2FD134
:100BB0000B884FEA12452FE04FEA03434FEA1245F4
:100BC0004FEA134328E000BF02F0FF05B5EB136FB7
:100BD000A2F1013C2CEA020C0DD11CF0803C08BFB4
:100BE00051F8043B0AD185EA0205B5EB032F0AD17F
:100BF00050F8042BE8E74FEA13630DE012F0FF0F03
:100C000006D051F8043B4FEA122523F07F4303E05E
:100C10004FF0000020BC704705F0FF0203F0FF001A
:100C2000012828BF904204BF2D0A1B0AF4D0A2EB72
:100C3000000020BC704700BF844641EA000313F067
:100C4000030349D1403A23D30B6803604B684360E8
:100C50008B688360CB68C3600B6903614B69436138
:100C60008B698361CB69C3610B6A03624B6A436220
:100C70008B6A8362CB6AC3620B6B03634B6B436308
:100C80008B6B8363CB6BC36340304031403ADBD224
:100C900030320BD30B6803604B6843608B68836012
:100CA000CB68C36010301031103AF3D20C3205D348
:100CB00051F8043B40F8043B043AF9D2043208D01E
:100CC000D2071CBF11F8013B00F8013B01D30B8890
:100CD00003806046704700BF082A13D38B07B1D04A
:100CE00010F00303AED0C3F10403D21ADB071CBF1C
:100CF00011F8013B00F8013BA4D331F8023B20F886
:100D0000023B9FE7043AD9D3013A11F8013B00F8BE
:100D1000013BF9D20B7803704B7843708B7883706A
:100D20006046704770B54FF0FF0C4CF4E06C1CEA65
:100D300011541DBF1CEA135594EA0C0F95EA0C0FD1
:100D400000F0DEF82C4481EA030621EA4C5123EA44
:100D50004C5350EA013518BF52EA033541F4801173
:100D600043F4801338D0A0FB02CE4FF00005E1FB26
:100D700002E506F00042E0FB03E54FF00006E1FB70
:100D800003569CF0000F18BF4EF0010EA4F1FF04B3
:100D9000B6F5007F64F5407404D25FEA4E0E6D41F3
:100DA00046EB060642EAC62141EA55514FEAC52004
:100DB00040EA5E504FEACE2EB4F1FD0C88BFBCF580
:100DC000E06F1ED8BEF1004F08BF5FEA500E50F131
:100DD000000041EB045170BD06F0004646EA0101F7
:100DE00040EA020081EA0301B4EB5C04C2BFD4EB29
:100DF0000C0541EA045170BD41F480114FF0000E22
:100E0000013C00F3AB8014F1360FDEBF002001F08F
:100E1000004170BDC4F10004203C35DA0C341BDC09
:100E200004F11404C4F1200500FA05F320FA04F0DB
:100E300001FA05F240EA020001F0004221F000410F
:100E400010EBD37021FA04F642EB06015EEA430E82
:100E500008BF20EAD37070BDC4F10C04C4F12005B2
:100E600000FA04F320FA05F001FA04F240EA020065
:100E700001F0004110EBD37041F100015EEA430E36
:100E800008BF20EAD37070BDC4F1200500FA05F256
:100E90004EEA020E20FA04F301FA05F243EA0203D5
:100EA00021FA04F001F0004121FA04F220EA0200E4
:100EB00000EBD3705EEA430E08BF20EAD37070BD2A
:100EC00094F0000F0FD101F00046400041EB01010A
:100ED00011F4801F08BF013CF7D041EA060195F0EC
:100EE000000F18BF704703F00046520043EB0303A6
:100EF00013F4801F08BF013DF7D043EA0603704793
:100F000094EA0C0F0CEA135518BF95EA0C0F0CD09D
:100F100050EA410618BF52EA4306D1D181EA0301E3
:100F200001F000414FF0000070BD50EA410606BFDD
:100F30001046194652EA430619D094EA0C0F02D122
:100F400050EA013613D195EA0C0F05D152EA033667
:100F50001CBF104619460AD181EA030101F0004185
:100F600041F0FE4141F470014FF0000070BD41F0CE
:100F7000FE4141F4780170BD70B54FF0FF0C4CF4A8
:100F8000E06C1CEA11541DBF1CEA135594EA0C0FC7
:100F900095EA0C0F00F0A7F8A4EB050481EA030E14
:100FA00052EA03354FEA013100F088804FEA0333FB
:100FB0004FF0805545EA131343EA12634FEA0222C9
:100FC00045EA111545EA10654FEA00260EF000418A
:100FD0009D4208BF964244F1FD0404F5407402D2DC
:100FE0005B084FEA3202B61A65EB03055B084FEA6D
:100FF00032024FF480104FF4002CB6EB020E75EB6A
:10100000030E22BFB61A754640EA0C005B084FEA91
:101010003202B6EB020E75EB030E22BFB61A75460E
:1010200040EA5C005B084FEA3202B6EB020E75EB59
:10103000030E22BFB61A754640EA9C005B084FEAD1
:101040003202B6EB020E75EB030E22BFB61A7546DE
:1010500040EADC0055EA060E18D04FEA051545EACD
:1010600016754FEA06164FEAC30343EA52734FEA76
:10107000C2025FEA1C1CC0D111F4801F0BD141EAEF
:1010800000014FF000004FF0004CB6E711F4801F54
:1010900004BF01430020B4F1FD0C88BFBCF5E06F34
:1010A0003FF6AFAEB5EB030C04BFB6EB020C5FEA44
:1010B000500C50F1000041EB045170BD0EF0004E99
:1010C0004EEA113114EB5C04C2BFD4EB0C0541EACB
:1010D000045170BD41F480114FF0000E013C90E6C8
:1010E00045EA060E8DE60CEA135594EA0C0F08BF8C
:1010F00095EA0C0F3FF43BAF94EA0C0F0AD150EA8B
:1011000001347FF434AF95EA0C0F7FF425AF10461D
:1011100019462CE795EA0C0F06D152EA03353FF445
:10112000FDAE1046194622E750EA410618BF52EAC2
:1011300043067FF4C5AE50EA41047FF40DAF52EA96
:1011400043057FF4EBAE12E74FF0FF3C06E000BF33
:101150004FF0010C02E000BF4FF0010C4DF804CD40
:101160004FEA410C7FEA6C5C4FEA430C18BF7FEA00
:101170006C5C1BD001B050EA410C0CBF52EA430C2E
:1011800091EA030F02BF90EA020F0020704710F1AE
:10119000000F91EA030F58BF994208BF90422CBF3D
:1011A000D8176FEAE37040F0010070474FEA410C36
:1011B0007FEA6C5C02D150EA013C07D14FEA430C54
:1011C0007FEA6C5CD6D152EA033CD3D05DF8040BC5
:1011D000704700BF8446104662468C4619466346F7
:1011E00000E000BF01B5FFF7B7FF002848BF10F1CE
:1011F000000F01BD4DF808EDFFF7F4FF0CBF012013
:1012000000205DF808FB00BF4DF808EDFFF7EAFF8E
:1012100034BF012000205DF808FB00BF4DF808ED49
:10122000FFF7E0FF94BF012000205DF808FB00BF3E
:101230004DF808EDFFF7CEFF94BF012000205DF8C8
:1012400008FB00BF4DF808EDFFF7C4FF34BF0120D5
:1012500000205DF808FB00BF4FEA410C7FEA6C5CA0
:1012600002D150EA013C0AD14FEA430C7FEA6C5CA0
:1012700002D152EA033C02D14FF0000070474FF018
:10128000010070474FEA410212F5001215D211D544
:101290006FF47873B3EB625212D94FEAC12343F073
:1012A000004343EA505311F0004F23FA02F018BFF5
:1012B000404270474FF00000704750EA013005D1BE
:1012C00011F0004008BF6FF0004070474FF0000081
:1012D000704700BF4A0011D212F5001211D20DD58D
:1012E0006FF47873B3EB62520ED44FEAC12343F02C
:1012F000004343EA505323FA02F070474FF00000D6
:10130000704750EA013002D14FF0FF3070474FF084
:10131000000070474FEA4102B2F1E04324BFB3F549
:10132000001CDCF1FE5C0DD901F0004C4FEAC0025C
:101330004CEA5070B2F1004F40EB830008BF20F040
:101340000100704711F0804F21D113F13872BCBFFA
:1013500001F00040704741F480114FEA5252C2F14F
:101360001802C2F1200C10FA0CF320FA02F018BF98
:1013700040F001004FEAC1234FEAD32303FA0CFCEB
:1013800040EA0C0023FA02F34FEA4303CCE77FEA7A
:10139000625307D150EA01331EBF4FF0FE4040F4C4
:1013A0004000704701F0004040F0FE4040F4000073
:1013B000704700BF53B94AB9002908BF00281CBFB5
:1013C0004FF0FF314FF0FF3000F00CB8ADF1080CDA
:1013D0006DE904CE0CF0D4FEDDF804E0DDE9022373
:1013E00004B07047704700BF0348044B834202D0EB
:1013F000034B03B118477047E4060020E4060020C1
:10140000000000000548064B1B1AD90F01EBA30191
:10141000491002D0034B03B118477047E40600207F
:10142000E40600200000000010B5064C237843B904
:10143000FFF7DAFF044B13B10448AFF30080012338
:10144000237010BDE40600200000000034E4000812
:1014500008B5054B1BB105490548AFF30080BDE851
:101460000840FFF7CFBF00BF00000000E8060020E3
:1014700034E40008034B0022DA609A601A601A61B3
:10148000704700BF180700202DE9F8430146324D90
:10149000E868FEF7FDFF0446D5F80090D5F808800F
:1014A0006F682E4B1E6801463046FFF7FBF800219F
:1014B000FFF796FA40B96869FFF7A0F820F00040FE
:1014C0002749FFF7ABFA40B3264B00221A60494682
:1014D0002046FFF7E7F80546224B19684046FFF71C
:1014E000E1F801462846FEF7D5FF0546314620467D
:1014F000FEF7CEFF3946FFF7D5F801462846FEF73E
:10150000C9FF05461849FFF789FAD0B91749284697
:10151000FFF766FAB0B1154D14E0124B1D68414655
:101520002846FFF7BFF820F000401149FFF758FAAE
:101530000028CCD021462846FEF7ACFF094B1860A6
:10154000C5E7094D2846FFF773FA034B5861034B73
:101550001C60BDE8F88300BF1807002004070020C6
:101560000000FA430007002000002F4400002FC4B1
:101570000000964308B502F0CFFC224B1B8B9BB2B8
:10158000214A12889B1A03EB83039B001F4A1360B6
:1015900043F69822934203DDA3F580431B4A136070
:1015A0001A4B1B681A4A934203DA03F58043174A21
:1015B0001360144B1A8B144B1A80164B1868134A7D
:1015C000126810441860144A138801339BB21380C8
:1015D0000A2B00D008BD60B90A4B00221A61002313
:1015E0000C4A13600C4A1380064B1869FFF74CFF36
:1015F000F0E7FFF703F80949FFF708F9014B186115
:10160000EDE700BF18070020140700201007002096
:1016100068C5FFFF0C0700200807002000002041DC
:1016200070B506460D461446FFF724FF024B1E60B8
:101630009D60DC6070BD00BF1807002010B5044637
:101640000E4B1A784FF47A73B3FBF2F30C4A10681E
:10165000B0FBF3F000F0B4F868B90F2C01D9012009
:101660000AE0002221464FF0FF3000F08BF8054BD6
:101670001C60002000E0012010BD00BF0000002021
:10168000080000200400002008B5074A136843F052
:1016900010031360032000F063F80F20FFF7CEFF64
:1016A00002F02CF8002008BD00200240034A116817
:1016B000034B1B780B441360704700BF38070020B2
:1016C00000000020014B1868704700BF3807002059
:1016D00038B50446FFF7F6FF0546B4F1FF3F02D0E8
:1016E000044B1B781C44FFF7EDFF401BA042FAD3CC
:1016F00038BD00BF00000020002808DB0901C9B286
:1017000000F1604000F5614080F80013704700F080
:101710000F000901C9B2014B1954704714ED00E0E4
:1017200000B500F00700C0F1070CBCF1040F28BFA2
:101730004FF0040C031D062B0FD9C31E4FF0FF3EC4
:101740000EFA0CF021EA000199400EFA03FE22EA9B
:101750000E0241EA02005DF804FB0023EEE7000000
:10176000074AD36823F4E0631B041B0C000200F457
:10177000E060034343F0BF6343F40033D36070473A
:1017800000ED00E010B50446054BD868C0F3022018
:10179000FFF7C6FF01462046FFF7AEFF10BD00BFB2
:1017A00000ED00E0002807DB00F01F0240090123E4
:1017B0009340024A42F82030704700BF00E100E049
:1017C0000138B0F1807F0BD24FF0E0235861054A19
:1017D000F02182F823100020986107221A617047D7
:1017E0000120704700ED00E030B40124056CAC40EE
:1017F000C56B6C60046863604368102B05D0036898
:1018000099600368DA6030BC704703689A600368C7
:10181000D960F8E750B310B402460168144B0B448A
:101820001448A0FB03031B099B001364124BD363F2
:10183000022382F8213008686FF30D105368946812
:101840002343D4682343146923435469234394698D
:101850002343D469234303430B6000209063012397
:1018600082F8213082F8200010BC704701207047B8
:10187000F8FFFDBFCDCCCCCC0000024038B504460B
:1018800090F82000012832D0012084F8200094F83C
:101890002100C0B2012804D0002384F820300220A7
:1018A00038BD022084F821000020A0632568286844
:1018B00020F0010028602046FFF796FFE36A5BB145
:1018C0002268136843F00E0313602268136843F024
:1018D000010313600020E3E72268136823F0040388
:1018E00013602268136843F00A031360EDE70220D7
:1018F000D6E7034690F82120D2B2022A06D004226D
:101900008263002280F820200120704701680A6865
:1019100022F00E020A6001680A6822F001020A60E1
:10192000026CC06B012101FA02F2426083F82110BF
:10193000002083F82000704708B590F82130DBB212
:10194000022B03D004238363012008BD02681368BF
:1019500023F00E0313600268136823F00103136081
:101960000368194A934214D0143293421FD01432A0
:1019700093421ED0143293421ED0143293421ED092
:101980001432934202D04FF0807203E04FF4801281
:1019900000E001220D4B5A60012380F82130002322
:1019A00080F82030436B6BB198470020CDE71022C0
:1019B000F0E74FF48072EDE74FF48052EAE74FF41E
:1019C0008032E7E70020C0E7080002400000024044
:1019D00038B5C36B1A6804682568016C04238B4012
:1019E000134235D015F0040F32D0236813F0200FC6
:1019F00003D1236823F0040323600368434A93421E
:101A000014D01432934218D01432934217D01432A7
:101A1000934217D01432934217D01432934202D01B
:101A20004FF0806203E04FF4800200E00422384B64
:101A30005A60C36A03B1984738BD4022F7E74FF4B4
:101A40008062F4E74FF48042F1E74FF48022EEE742
:101A500002238B4013423CD015F0020F39D023688B
:101A600013F0200F06D1236823F00A03236001231B
:101A700080F821300368254A934214D014329342EF
:101A80001CD0143293421BD0143293421BD0143218
:101A900093421BD01432934202D04FF0007203E005
:101AA0004FF4001200E00222194B5A60002380F824
:101AB0002030836A002BBFD09847BDE72022F3E790
:101AC0004FF40072F0E74FF40052EDE74FF40032AC
:101AD000EAE708238B401342AED015F0080FABD0D5
:101AE000236823F00E032360026CC16B012303FA09
:101AF00002F24A60836380F82130002380F82030AE
:101B0000036B002B98D0984796E700BF080002406F
:101B10000000024070B582B00024A446A1E07E4DD2
:101B2000AB4214D00CD8A5F58015AB420FD005F50B
:101B30007025AB420BD0A5F58015AB4210D106E065
:101B4000764DAB4203D005F58035AB4208D18B68AA
:101B5000002B50D0012B49D04261082400E0CC6812
:101B6000BEF1FF0F49D806464FEA8C0233680F25B5
:101B7000954023EA050304FA02F2134333604B68ED
:101B800013F0805F6BD0664B9A6942F001029A6154
:101B90009B6903F001030193019B4FEA9C02951C92
:101BA000604B53F825600CF00305AD000F23AB40EC
:101BB00026EA03065C4B984226D003F580639842E0
:101BC00000F08C8003F58063984200F0898003F573
:101BD0008063984216D0042317E0CC680434BFE732
:101BE000CC680834BCE7CC680C34B9E7026108243F
:101BF000B6E70024B4E70424B2E7061DACF10802FE
:101C00009200B3E7032300E00023AB4033430232EA
:101C1000444D45F822304B6813F4801F62D0434A8C
:101C2000936843EA0E0393604B6813F4001F5FD080
:101C30003E4AD36843EA0E03D3604B6813F4003F77
:101C40005CD03A4A536843EA0E0353604B6813F47E
:101C5000803F59D0354A136843EA0E0313600CF1F4
:101C6000010C0B6833FA0CF254D0012202FA0CF288
:101C700003EA020E32EA0303F1D14B68122B3FF65E
:101C80004EAF122B3FF66CAF01A555F823F000BF05
:101C90004F1B00085F1B0008E11B0008F31B000836
:101CA000611B0008611B0008611B0008611B000824
:101CB000611B0008611B0008611B0008611B000814
:101CC000611B0008611B0008611B0008611B000804
:101CD000611B0008DB1B0008E71B0008012394E7D9
:101CE000022392E7114A936823EA0E0393609BE76D
:101CF0000E4AD36823EA0E03D3609EE70B4A53686B
:101D000023EA0E035360A1E7084A136823EA0E038F
:101D10001360A4E702B070BD000022100000311073
:101D20000010024000000140000801400004014092
:101D30000AB101617047090401617047C36801EA93
:101D4000030221EA030141EA0241016170470000F8
:101D500082B0084B1B68084AA2FB03235B0A00FB06
:101D600003F3019300BF019B5A1E0192002BF9D18E
:101D700002B0704708000020D34D6210002800F028
:101D8000F18170B582B00446036813F0010F2CD0C6
:101D9000994B5B6803F00C03042B1DD0964B5B68DA
:101DA00003F00C03082B12D06368B3F5803F41D0D9
:101DB000002B55D103F1804303F504331A6822F454
:101DC00080321A601A6822F480221A6037E08A4B47
:101DD0005B6813F4803FE7D0874B1B6813F4003F28
:101DE00003D06368002B00F0BF81236813F0020F5B
:101DF00075D0814B5B6813F00C0F5FD07E4B5B6836
:101E000003F00C03082B54D02369002B00F08A80C8
:101E10007A4B01221A60FFF755FC0546764B1B688A
:101E200013F0020F75D1FFF74DFC401B0228F5D9C6
:101E300003209EE1704A136843F4803313606368A3
:101E400043B3FFF73FFC05466B4B1B6813F4003FA1
:101E5000CBD1FFF737FC401B6428F5D9032088E17C
:101E6000B3F5A02F09D0644B1A6822F480321A60AF
:101E70001A6822F480221A60E1E703F18043A3F597
:101E80003C331A6842F480221A601A6842F48032A5
:101E90001A60D4E7FFF716FC0546574B1B6813F48E
:101EA000003FA2D0FFF70EFC401B6428F5D90320A9
:101EB0005FE1514B5B6813F4803FA5D14E4B1B682B
:101EC00013F0020F03D02369012B40F04F814A4ADF
:101ED000136823F0F803616943EAC10313602368C0
:101EE00013F0080F33D0A369002B5CD0434B0122C1
:101EF000C3F88024FFF7E6FB05463F4B5B6A13F00F
:101F0000020F21D1FFF7DEFB401B0228F5D9032089
:101F10002FE1394A136823F0F803616943EAC103EA
:101F20001360DCE7354B00221A60FFF7CBFB054658
:101F3000314B1B6813F0020FD1D0FFF7C3FB401BDE
:101F40000228F5D9032014E10120FFF701FF2368DF
:101F500013F0040F00F09680274BDB6913F0805FCD
:101F600034D1254BDA6942F08052DA61DB6903F043
:101F700080530193019B0125214B1B6813F4807F43
:101F800026D0E368012B3DD0002B53D103F18043D1
:101F900003F504331A6A22F001021A621A6A22F067
:101FA00004021A6233E0154B0022C3F88024FFF7C5
:101FB00089FB0546104B5B6A13F0020FC7D0FFF791
:101FC00081FB401B0228F5D90320D2E00025D3E78E
:101FD0000B4A136843F480731360FFF773FB0646E4
:101FE000074B1B6813F4807FCBD1FFF76BFB801B83
:101FF0006428F5D90320BCE00010024000004242F2
:10200000007000405F4A136A43F001031362E36803
:1020100033B3FFF757FB06465A4B1B6A13F0020F08
:102020002FD1FFF74FFB801B41F288339842F3D941
:1020300003209EE0052B09D0524B1A6A22F00102C0
:102040001A621A6A22F004021A62E0E74D4B1A6A19
:1020500042F004021A621A6A42F001021A62D6E7DA
:10206000FFF730FB0646474B1B6A13F0020F08D000
:10207000FFF728FB801B41F288339842F3D90320F5
:1020800077E0E5B9E369002B72D03E4A526802F06E
:102090000C02082A56D0022B17D03B4B00221A669E
:1020A000FFF710FB0446374B1B6813F0007F47D047
:1020B000FFF708FB001B0228F5D9032059E0314A3D
:1020C000D36923F08053D361DCE72F4B00221A66DB
:1020D000FFF7F8FA05462B4B1B6813F0007F06D07C
:1020E000FFF7F0FA401B0228F5D9032041E0236AEC
:1020F000B3F5803F1AD023494B6823F47413226A46
:10210000606A024313434B601F4B01221A66FFF7BC
:10211000D9FA04461B4B1B6813F0007F0ED1FFF762
:10212000D1FA001B0228F5D9032022E0154A536892
:1021300023F40033A1680B435360DCE7002018E070
:10214000002016E0012B16D00E4B5B6803F48031A3
:10215000226A914211D103F47013626A93420ED144
:10216000002006E001207047012002E0012000E08D
:10217000002002B070BD0120FBE70120F9E701203B
:10218000F7E700BF0010024000004242114B5B68BD
:1021900003F00C02042A18D0082A18D1C3F3834292
:1021A0000D49885C13F4803F0BD00A4B5B68C3F386
:1021B00040430A4AD35C0A4A02FB00F0B0FBF3F04A
:1021C0007047084B03FB00F070470548704706480E
:1021D000704700BF0010024054E4000850E40008BB
:1021E000001BB70000093D0000127A00002800F033
:1021F000A08070B50D460446524B1B6803F00703E0
:102200008B420BD24F4A136823F007030B43136032
:10221000136803F007038B4240F08D80236813F0AE
:10222000020F17D013F0040F04D0474A536843F449
:10223000E0635360236813F0080F04D0424A5368E8
:1022400043F460535360404A536823F0F003A1689D
:102250000B435360236813F0010F31D06368012BE7
:1022600020D0022B25D0384A126812F0020F64D019
:1022700035494A6822F0030213434B60FFF722FA04
:102280000646314B5B6803F00C036268B3EB820FC8
:1022900016D0FFF717FA801B41F288339842F0D925
:1022A000032045E0284A126812F4003FE0D10120E3
:1022B0003EE0254A126812F0007FD9D1012037E0B4
:1022C000204B1B6803F00703AB420AD91D4A136871
:1022D00023F007032B431360136803F00703AB429B
:1022E0002DD1236813F0040F06D0174A536823F446
:1022F000E063E1680B435360236813F0080F07D0D5
:10230000114A536823F46053216943EAC1035360BF
:10231000FFF73CFF0C4B5B68C3F303130B4AD35C22
:10232000D8400B4B18600B4B1868FFF787F900205B
:1023300070BD012070470120FAE70120F8E7012075
:10234000F6E700BF00200240001002407CEC0008CD
:102350000800002004000020014B1868704700BFEF
:102360000800002008B5FFF7F7FF044B5B68C3F3D4
:102370000223034AD35CD84008BD00BF00100240CE
:1023800074EC000808B5FFF7E7FF044B5B68C3F384
:10239000C223034AD35CD84008BD00BF00100240EE
:1023A00074EC00082DE9F04782B0054688461746D0
:1023B0001E46FFF787F90A9B1B1A03EB0609FFF776
:1023C00081F98246284B1B68C3F3CB3309FB03F327
:1023D00001932B689C6838EA04040CBF0123002396
:1023E000BB423DD0B6F1FF3FF3D0FFF76BF9A0EB56
:1023F0000A00484507D2019A02B14A46019B013BB7
:1024000001939146E5E72A68536823F0E00353609F
:102410006B68B3F5827F0BD0AB6AB3F5005F14D065
:10242000012385F85130002385F85030032018E04F
:10243000AB68B3F5004F02D0B3F5806FECD12A68DA
:10244000136823F040031360E6E72A68136823F457
:10245000005313602A68136843F400531360DFE7E6
:10246000002002B0BDE8F0870800002070B582B0FF
:1024700006460C46154600920B4601220221FFF744
:1024800091FF48B900952346002280213046FFF78E
:1024900089FF38B902B070BD736D43F020037365D6
:1024A0000320F7E7736D43F0200373650320F1E722
:1024B000002856D010B50446436A33B94368B3F5D3
:1024C000827F05D00023C36102E0002303614361E2
:1024D0000023A36294F85130002B3CD0022384F8EF
:1024E00051302268136823F040031360636803F4DB
:1024F0008273A26802F404421343E26802F40062A9
:102500001343226902F002021343626902F00102DE
:102510001343A26902F400721343E26902F0380225
:102520001343226A02F080021343A26A02F40052AB
:10253000216813430B60638B226803F0040353602C
:102540002268D36923F40063D3610020606501230E
:1025500084F8513010BD84F85030204601F08AF8DC
:10256000BCE7012070472DE9F04383B0044688465C
:1025700091461F460A9DFFF7A5F8064694F851308C
:10258000DBB26268012B0AD0B2F5827F40F0058190
:10259000A268002A40F00581042B40F00481B8F1C4
:1025A000000F00F00281B9F1000F00F00081002F50
:1025B00000F0FF8094F85030012B00F0FC800123E4
:1025C00084F8503094F85130DBB2042B02D005234C
:1025D00084F8513000236365C4F83890E787A787F3
:1025E000C4F83080E786A7862364636423681A688A
:1025F00012F0400F03D11A6842F040021A60E368FB
:10260000B3F5006F11D063680BB1012F0BD1226BB2
:10261000236812781A73236B01332363E38E9BB212
:10262000013B9BB2E386012771E063680BB1012F88
:102630000BD1226B23681288DA60236B0233236389
:10264000E38E9BB2013B9BB2E38601271BE023682C
:102650009A6812F0010F0ED0E28F92B25AB1DA6886
:10266000A36B1A80A36B0233A363E38F9BB2013B7E
:102670009BB2E3870127FFF725F8801BA84202D30E
:10268000B5F1FF3F1ED1E38E9BB21BB9E38F9BB226
:10269000002B62D023689A6812F0020FD7D0E28E26
:1026A00092B2002AD3D0002FD1D0226B1288DA60E8
:1026B000236B02332363E38E9BB2013B9BB2E38621
:1026C0000027C4E7012384F85130002384F85030F8
:1026D000032063E023689A6812F0010F0ED0E28FA6
:1026E00092B25AB1DA68A36B1A70A36B0133A36379
:1026F000E38F9BB2013B9BB2E3870127FEF7E2FF2A
:10270000831BAB4202D3B5F1FF3F1ED1EDB1E38E87
:102710009BB213B9E38F9BB2FBB123689A6812F0A6
:10272000020FD7D0E28E92B2002AD3D0002FD1D0A0
:10273000226B12781A73236B01332363E38E9BB2EF
:10274000013B9BB2E3860027C4E7012384F85130A4
:10275000002384F85030032020E0324629462046EA
:10276000FFF784FE90B9A36833B901932368DA6850
:1027700001929B680193019B012384F8513000234F
:1027800084F85030636D4BB1012007E0202363656E
:10279000002384F85030012000E0022003B0BDE89F
:1027A000F0830220FAE70220F8E70120F6E7012093
:1027B000F4E70120F2E70220F0E7000030B4026AFB
:1027C000036A23F0010303624568836923F07303FE
:1027D0000C681C4322F002028B6813430B4A9042A0
:1027E00006D0456084614A684263036230BC70472A
:1027F00023F00803CA681A4322F0040325F4407545
:102800004A692A438D691543EBE700BF002C01405C
:1028100030B4036A026A22F4807202624468C269B8
:1028200022F073020D68154323F400738A6843EAAB
:1028300002230D4A904206D04460C5614A68C263D3
:10284000036230BC704723F40063CA6843EA022382
:1028500023F4806324F440544A6944EA02148A69E8
:1028600044EA0214E8E700BF002C014030B4036AD8
:10287000026A22F4805202624468C26922F4E6428B
:102880000D6842EA052223F400538D6843EA0533BC
:10289000074DA84206D04460C2614A6802640362E0
:1028A00030BC704724F480444D6944EA8514F2E753
:1028B000002C01407047704770477047704770B5F3
:1028C00004460368DE681D6915F0020F10D016F08B
:1028D000020F0DD06FF002021A6101230377036823
:1028E0009B6913F0030F5ED0FFF7E6FF0023237709
:1028F00015F0040F12D016F0040F0FD023686FF0FC
:1029000004021A610223237723689B6913F4407F32
:102910004FD02046FFF7D0FF0023237715F0080F94
:1029200012D016F0080F0FD023686FF008021A615A
:10293000042323772368DB6913F0030F40D020467C
:10294000FFF7BAFF0023237715F0100F12D016F00F
:10295000100F0FD023686FF010021A61082323773D
:102960002368DB6913F4407F31D02046FFF7A4FFD2
:102970000023237715F0010F02D016F0010F2DD19F
:1029800015F0800F02D016F0800F2FD115F0400FF8
:1029900002D016F0400F31D115F0200F02D016F002
:1029A000200F33D170BDFFF786FF2046FFF785FF6C
:1029B0009CE72046FFF77FFF2046FFF77EFFABE74F
:1029C0002046FFF778FF2046FFF777FFBAE720465B
:1029D000FFF771FF2046FFF770FFC9E723686FF02C
:1029E00001021A612046FFF765FFC9E723686FF00F
:1029F00080021A61204600F0D0F9C7E723686FF023
:102A000040021A612046FFF759FFC5E723686FF0BF
:102A100020021A61204600F0BFF9C3E703681F4A8D
:102A200090420AD0B0F1804F07D0A2F59432904284
:102A300003D002F58062904203D123F070034A680C
:102A40001343164A90420AD0B0F1804F07D0A2F546
:102A50009432904203D002F58062904203D123F475
:102A60004073CA68134323F080034A691343036029
:102A70008B68C3620B688362084B98420AD00123BB
:102A80004361036913F0010F03D0036923F00103CD
:102A9000036170470B690363F1E700BF002C01403D
:102AA00040B310B5044690F83D30F3B1022384F8EA
:102AB0003D30214651F8040BFFF7B0FF012384F8A5
:102AC000463084F83E3084F83F3084F8403084F853
:102AD000413084F8423084F8433084F8443084F83C
:102AE000453084F83D30002010BD80F83C3000F0C7
:102AF000A6FEDBE70120704730B4036A026A22F0C9
:102B0000100202624468826922F4E6420D6842EAD9
:102B1000052223F020038D6843EA05130C4DA842DB
:102B200006D0446082614A688263036230BC7047A9
:102B300023F08003CD6843EA051323F0400324F417
:102B400040644D6944EA85048D6944EA8504E8E7F8
:102B5000002C014038B590F83C30012B66D004467B
:102B60000D46012380F83C300C2A5AD8DFE802F0E9
:102B7000075959591B595959305959594400006836
:102B8000FFF71CFE2268936943F0080393612268F3
:102B9000936923F0040393612268936929690B43C5
:102BA000936100203EE00068FFF7A6FF226893696A
:102BB00043F4006393612268936923F48063936113
:102BC00022689369296943EA01239361002029E07F
:102BD0000068FFF71DFE2268D36943F00803D36144
:102BE0002268D36923F00403D3612268D369296979
:102BF0000B43D361002015E00068FFF737FE226821
:102C0000D36943F40063D3612268D36923F48063FA
:102C1000D3612268D369296943EA0123D361002083
:102C200000E00120002384F83C3038BD0220FCE79E
:102C300001F01F014FF0010C0CFA01FC036A23EABA
:102C40000C030362036A8A40134303627047000067
:102C500010B50446084651BB94F83E30DBB2013B48
:102C600018BF0123002B5BD1002839D1022384F83F
:102C70003E30012201462068FFF7DAFF23682A4A26
:102C800093423DD02368284A93423ED0B3F1804F0F
:102C90003BD0A2F59432934237D002F58062934242
:102CA00033D01A6842F001021A60002039E004298A
:102CB00008D008290DD094F84130DBB2013B18BF91
:102CC0000123CFE794F83F30DBB2013B18BF01236B
:102CD000C8E794F84030DBB2013B18BF0123C1E7DD
:102CE000042805D0082807D0022384F84130C0E723
:102CF000022384F83F30BCE7022384F84030B8E771
:102D00005A6C42F400425A64BCE79A6802F0070227
:102D1000062A07D01A6842F001021A60002000E07B
:102D2000012010BD0020FCE7002C014090F83C2061
:102D3000012A2CD010B40346012280F83C20022244
:102D400080F83D2002685068946820F0700C086894
:102D500040EA0C0050601A680E4882420AD0B2F174
:102D6000804F07D0A0F59430824203D000F58060F8
:102D7000824204D124F080044968214391600122F9
:102D800083F83D20002083F83C0010BC70470220EF
:102D9000704700BF002C014070477047026802F185
:102DA0000C0353E8003F23F0C0030C3242E800312B
:102DB0000029F3D1202380F841307047026802F1E6
:102DC0000C0353E8003F23F490730C3242E80031C7
:102DD0000029F3D1026802F1140353E8003F23F005
:102DE0000103143242E800310029F3D1036B012BB7
:102DF00005D0202380F84230002303637047026827
:102E000002F10C0353E8003F23F010030C3242E8B8
:102E100000310029F3D1ECE790F84130DBB2212BEF
:102E200001D0022070478368B3F5805F17D0036A32
:102E30005A1C02621A7803685A60C38C9BB2013B29
:102E40009BB2C3844BB90268D36823F08003D3607C
:102E50000268D36843F04003D360002070470369E1
:102E6000002BE4D1036A1B880268C3F30803536094
:102E7000036A02330362E0E710B50446026813698F
:102E800023F44053C1680B43136183680269134301
:102E900042691A430168CB6823F4B05323F00C0352
:102EA0001343CB600268536923F4407381690B4379
:102EB00053610268134B9A4220D0FFF753FA02463F
:102EC00002EB820202EB820263689B00B2FBF3F228
:102ED0000D48A0FB02314909642303FB11231B01A8
:102EE0003233A0FB03035B0903F0F00202EB011293
:102EF00003F00F03216813448B6010BDFFF742FA03
:102F00000246DDE7003801401F85EB5160B310B584
:102F1000044690F8413013B3242384F841302268EA
:102F2000D36823F40053D3602046FFF7A5FF22683F
:102F3000136923F4904313612268536923F02A0331
:102F400053612268D36843F40053D3600020606467
:102F5000202384F8413084F84230606310BD80F84B
:102F6000403000F025FDD7E70120704738B5134603
:102F700090F84120D2B2202A2FD1044600292ED029
:102F80000BB9012038BD01628384C38400224264EE
:102F9000212084F84100A06B124D8562A06B124D78
:102FA000C562A06B114D0563A06B426322680432B9
:102FB000A06BFEF763FC23686FF040021A60226882
:102FC00002F1140353E8003F43F08003143242E857
:102FD00000310029F3D10020D4E70220D2E70120FC
:102FE000D0E700BFF12F0008593000086530000815
:102FF00008B50346406A1B681B6813F0200F1AD1FE
:103000000023C384026802F1140353E8003F23F055
:103010008003143242E800310029F3D1026802F142
:103020000C0353E8003F43F040030C3242E8003108
:103030000029F3D108BD00F0F9FEFBE708B50168EF
:10304000CA6822F04002CA60202280F8412000F0C5
:10305000EDFE002008BD704708B5406AFFF7FBFF92
:1030600008BD704710B5446A23685A6994F8413026
:10307000DBB2212B10D023685A6902F0400294F889
:103080004230DBB2222B11D0636C43F01003636437
:103090002046FFF7E6FF10BD02F08002002AEAD0CA
:1030A0000023E3842046FFF779FEE4E7002AEBD013
:1030B0000023E3852046FFF781FEE5E708B5406A77
:1030C0000023C385C384FFF7CCFF08BD704790F889
:1030D0004230DBB2222B69D18368B3F5805F4FD0D9
:1030E000826AB3F5805F04D0002B56D10369002BB0
:1030F00053D103685B681370836A01338362C38DA5
:103100009BB2013B9BB2C385002B51D100B583B06C
:103110000268D36823F02003D3600268D36823F4E5
:103120008073D3600268536923F001035361202345
:1031300080F8423000234363036B012B33D100231B
:103140000363026802F10C0353E8003F23F010030D
:103150000C3242E800310029F3D103681A6812F0FA
:10316000100F06D0002201921A6801925B68019349
:10317000019B818DFFF7AAFF002003B05DF804FBDF
:103180000269002AACD1826A03685B68C3F3080352
:103190001380836A02338362B1E703685B6803F0DC
:1031A0007F031370A8E700F09DFDE5E7022070475C
:1031B0000020704710B582B0044602681368D068DA
:1031C000516913F00F0F09D113F0200F0CD010F03C
:1031D000200F09D02046FFF77AFF16E011F0010119
:1031E00015D110F4907F12D1216B012979D013F001
:1031F000800F03D010F0800F40F0138113F0400FC8
:1032000003D010F0400F40F0108102B010BD13F059
:10321000010F06D010F4807F03D0626C42F00102EF
:10322000626413F0040F04D019B1626C42F0020220
:10323000626413F0020F04D019B1626C42F0040210
:10324000626413F0080F07D010F0200F00D119B1FD
:10325000626C42F008026264626C002AD5D013F0FE
:10326000200F02D010F0200F29D123685B6903F0F2
:103270004003626C12F0080F00D163B32046FFF7E1
:103280009DFD23685B6913F0400F20D0226802F196
:10329000140353E8003F23F04003143242E80031A6
:1032A0000029F3D1E36B73B1624A5A63E06BFEF716
:1032B00043FB0028A9D0E06B436B9847A5E7204665
:1032C000FFF705FFD1E72046FFF7CBFE9DE720463D
:1032D000FFF7C7FE99E72046FFF7C3FE00236364AC
:1032E00093E713F0100F82D010F0100F3FF47FAF70
:1032F000002301931368019353680193019B536961
:1033000013F0400F51D0E26B13685B689BB2002B47
:103310003FF47BAFA18D99427FF677AFE385936948
:10332000202B37D0226802F10C0353E8003F23F42E
:1033300080730C3242E800310029F3D1226802F197
:10334000140353E8003F23F00103143242E8003134
:103350000029F3D1226802F1140353E8003F23F05F
:103360004003143242E800310029F3D1202384F8CD
:10337000423000232363226802F10C0353E8003F2C
:1033800023F010030C3242E800310029F3D1E06B46
:10339000FEF7AFFA02236363A18DE38D9BB2C91AD6
:1033A00089B22046FFF792FE2FE7A18DE38D9BB2F5
:1033B000C91A89B2E38D9BB2002B3FF426AF0029D6
:1033C0003FF423AF226802F10C0353E8003F23F4DB
:1033D00090730C3242E800300028F3D1226802F1E9
:1033E000140353E8003F23F00103143242E8003095
:1033F0000028F3D1202384F842300023236322687D
:1034000002F10C0353E8003F23F010030C3242E8B2
:1034100000300028F3D1022363632046FFF756FEF5
:10342000F3E62046FFF7F8FCEFE62046FFF706FE3E
:10343000EBE600BFBD30000881628285C2850023B3
:103440004364222380F84230036923B10268D368C1
:1034500043F48073D3600268536943F001035361FE
:103460000268D36843F02003D3600020704708B59A
:1034700090F84230DBB2202B08D149B10AB90120C3
:1034800008BD00230363FFF7D7FFF9E70220F7E742
:103490000120F5E700B583B00A4B5A6942F00102FA
:1034A0005A615B6903F001030193019B0022022131
:1034B0000E20FEF767F90E20FEF774F903B05DF8F1
:1034C00004FB00BF001002402DE9F04188B0002449
:1034D0000494059406940794274B9A6942F02002BD
:1034E0009A619A6902F020020192019A9A6942F067
:1034F00004029A619A6902F004020292029A9A699D
:1035000042F008029A619B6903F008030393039B4E
:10351000DFF8688001223C214046FEF709FC184D87
:10352000224603212846FEF703FC22464FF40041C1
:103530004046FEF7FDFB48F23C0304930127059744
:1035400006970326079604A94046FEF7E3FA049679
:1035500005970694079604A92846FEF7DBFA41F280
:10356000040304930594069404A92846FEF7D2FAAE
:1035700008B0BDE8F08100BF001002400008014023
:10358000000C014072B6FEE700B591B02822002180
:1035900006A800F017FF00230193029303930493FE
:1035A0000593012206924FF4803307930A92022278
:1035B0000D920E934FF480130F9306A8FEF7DEFBD7
:1035C00080B90F23019302210291002303934FF44A
:1035D00080620492059301A8FEF708FE20B911B09D
:1035E0005DF804FBFFF7CEFFFFF7CCFF08B5FEF751
:1035F0004BF8FFF7C9FF6420FEF76AF8FFF764FF96
:10360000FFF748FF00F0BAF900F068F900F00CF895
:10361000082203490348FFF7A9FC00F055FAFEE72A
:1036200064E400082408002008B51048104B03602B
:103630004FF482734360002383604FF40062C260E2
:1036400002220261012242614FF40072826118225B
:10365000C2610362436283620A23C362FEF728FFEA
:1036600000B908BDFFF78EFFFBE700BF3C07002055
:103670000030014010B586B00023029303930493F9
:10368000059302681A4B9A4201D006B010BD03F5AB
:1036900060439A6942F480529A619A6902F48052B6
:1036A0000092009A9A6942F008029A619B6903F0BD
:1036B00008030193019B282302930223039303230E
:1036C00005930C4C02A92046FEF724FA102302931E
:1036D00000230393049302A92046FEF71BFA064A2F
:1036E000536843F0E06343F001035360CDE700BF4C
:1036F00000300140000C01400000014082B00E4B40
:103700009A6942F001029A619A6902F001020092FC
:10371000009ADA6942F08052DA61DB6903F0805383
:103720000193019B054A536823F0E06343F0007363
:10373000536002B0704700BF00100240000001401B
:10374000FEE7FEE7FEE7FEE7FEE7704770477047DB
:1037500008B50248FEF73CF908BD00BFE0070020AD
:1037600008B50248FFF7ABF808BD00BF9807002076
:1037700008B50248FFF71EFD08BD00BF2408002061
:103780000120704708B500F0C1FE162303604FF01A
:10379000FF3008BD08B54FF0FF31FFF7F3FFFEE73C
:1037A00070B50C461646002506E0AFF300802146B2
:1037B00001F8010B01350C46B542F6DB304670BD11
:1037C00070B50C461646002504E014F8010BAFF363
:1037D00000800135B542F8DB304670BD4FF0FF3058
:1037E00070474FF400534B60002070470120704732
:1037F0000020704710B503460C4A0D490D4800687B
:1038000040B10C4800680344521A934206D8094A52
:10381000136010BD0748084C0460F2E700F076FE24
:103820000C2303604FF0FF30F3E700BF005000208F
:103830000004000094070020A00C002070470368DB
:10384000B3F1804F00D0704700B583B003F5043367
:10385000DA6942F00102DA61DB6903F001030193E6
:10386000019B002211461C20FDF78CFF1C20FDF758
:1038700099FF03B05DF804FB00B587B00023029305
:103880000393049305930368B3F1804F02D007B00C
:103890005DF804FB03F504339A6942F008029A616B
:1038A0009B6903F008030193019B4FF4406302936B
:1038B000022303930323059302A90648FEF72AF97E
:1038C000054A536823F4407343F0E06343F4007304
:1038D0005360DCE7000C01400000014010B58AB0E5
:1038E0000023089309930193029303930493059390
:1038F0000693079320484FF0804202604360836044
:1039000040F2FF32C26003618361FFF7C9F838BB40
:1039100000230893099308A91748FFF707FA10BB7B
:10392000602301930023029303930593082201A9C6
:103930001148FFF70FF9C8B90C2201A90E48FFF78B
:1039400009F9B0B90C4C2046FFF796FF0821204634
:10395000FFF77EF90C212046FFF77AF90AB010BD77
:10396000FFF710FED4E7FFF70DFED9E7FFF70AFED9
:10397000E2E7FFF707FEE5E79807002008B50A48E9
:103980000A4B03604FF4E133436000238360C3605C
:1039900003610C2242618361C361FFF7B7FA00B98A
:1039A00008BDFFF7EFFDFBE72408002000380140C9
:1039B000F0B587B000230293039304930593026844
:1039C000294B9A4201D007B0F0BD044603F5584395
:1039D0009A6942F480429A619A6902F480420092A4
:1039E000009A9A6942F008029A619B6903F0080301
:1039F0000193019B40230293022303930323059326
:103A00001A4F02A93846FEF785F88026029600254F
:103A10000395049502A93846FEF77CF8144A5368CA
:103A200043F0E06343F0040353601248124B036019
:103A3000102343608560C6600561456185614FF470
:103A40000053C361FDF7E6FE58B90A4BA3635C62FD
:103A5000002211462520FDF795FE2520FDF7A2FE48
:103A6000B1E7FFF78FFDF0E700380140000C01409F
:103A700000000140E007002044000240FFF7DEFEA6
:103A80000B480C490C4A002302E0D458C4500433BC
:103A9000C4188C42F9D3094A094C002301E0136091
:103AA0000432A242FBD300F037FDFFF79FFD7047C1
:103AB00000000020E40600206C5D0108E406002000
:103AC000A00C0020FEE7000008B501224FF40041E1
:103AD0001748FEF72DF9012216491748FFF7C7FCD2
:103AE0000020164A0146FDF79BFD154B01221A7076
:103AF000144B1868144BA3FB0030800BFDF760FEDD
:103B000002E0124B00221A7000F020F9104B1B78D3
:103B100013B10F4B00221A700E4B1B7813B10D4BD3
:103B200000221A70094B1B78002BEDD0E9E700BF8B
:103B30000008014070080020240800200000C8424E
:103B40006F080020080000205917B7D1780800201E
:103B50007A0800207908002070B582B0284B1B78C5
:103B6000002B49D0FDF706FD264B5869264B1A68F5
:103B70001044C0F309001860C82100F0DFF9234A9F
:103B800013780133DBB21370132B37D9134600229D
:103B90001A701F4B01221A701E4A13780133DBB2D0
:103BA0001370092B10D81C4A13780133DBB2137041
:103BB000632B23D9134600221A700121174B197069
:103BC0001748FEF7BBF819E0134600221A70154B90
:103BD00001221A700B4BD8681E69FCF7FDFB0446E6
:103BE0000D463046FCF7F8FBCDE9000122462B4696
:103BF0000D4800F01BF8D6E7FDF758FD02B070BD88
:103C00006F08002018070020740800206E080020AC
:103C10007A0800206D0800206C0800207808002039
:103C2000000C0140790800208CEC00080FB400B5AE
:103C30009BB01CAB53F8042B0193602102A800F049
:103C400087FBB0F1000E3ADD002206E0204B198818
:103C5000204B1B88994215D0013272451CDA1C4852
:103C600001884B1C9BB2038002F16800684410F885
:103C700060CC194800F801C07F2BE7D9144B002114
:103C80001980E3E701339BB212490B807F2BE3D904
:103C90000B4600211980DFE7104B1B787BB90C4BDA
:103CA0001B880C4A11888B420ED35B1A9AB20B4BBD
:103CB00001201870084B19440948FFF757F91BB049
:103CC0005DF804EB04B07047C1F1800292B2EEE7F8
:103CD000EC080020EA080020F0080020E808002096
:103CE0002408002008B5144B834200D008BD1349B6
:103CF0000A78531CDBB20B701149087811498854BB
:103D00003F2B02D90D4B00221A700C4B1A780E4B28
:103D10001B789A4205D0012209490748FFF7A7FB03
:103D2000E4E70133DBB2084A13703F2BF3D91346A3
:103D300000221A70EFE700BF24080020A608002028
:103D4000A4080020A8080020A508002008B502E06B
:103D5000294B1B78F3B9294B1A78294B1B789342CE
:103D600049D0531CDBB225490B7026498A5C3F2B96
:103D700002D9224B002119700D2AE9D00A2AE7D076
:103D80001D4B1B78262B32D8581C1B4908701E4926
:103D9000CA54E0E71C480022C2541C4A1C4900F0E7
:103DA00061FA012811D01B4A1B49174800F05AFA42
:103DB000012812D0194A1A49134800F053FA012871
:103DC00010D01848FFF732FF03E002211648FDF734
:103DD000B5FF094B00221A70BDE702211248FDF71A
:103DE000ADFFF6E702211048FDF7A8FFF1E7024B0F
:103DF00000221A70AFE708BD7B080020A50800204C
:103E0000A6080020A80800207C0800201807002031
:103E1000A0EC000820070020A8EC000824070020E0
:103E2000B0EC0008B8EC0008000C014008B5134BDA
:103E3000984200D008BD838C114A11880B449BB274
:103E400013807F2B02D9134600221A800C4B1B884B
:103E50000C4A128893420CD007D2D21A92B20A4965
:103E600019440648FFF782F8E4E7C3F1800292B2F2
:103E7000F5E7064B00221A70DCE700BF240800209B
:103E8000EA080020EC080020F0080020E8080020E4
:103E9000F0B585B04FF40343ADF80E301C4C002252
:103EA0004FF400412046FDF743FF1A4D4FF0FF3617
:103EB0000096012303AA0DF10E012846FEF753FBDD
:103EC00001224FF400412046FDF732FFBDF80C708F
:103ED0004FF40443ADF80E3000224FF40041204669
:103EE000FDF726FF0096012303AA0DF10E012846D7
:103EF000FEF739FB01224FF400412046FDF718FF81
:103F00009DF80C0040EA0720C0F38D0005B0F0BD1D
:103F1000000801403C07002008B5FFF7B9FF4FF645
:103F2000FF73984202D0034B188308BD014B024A2D
:103F3000DA61FAE718070020000080BF70B5C0F30F
:103F40000900484A108000F58073C3F30903464E08
:103F50003380464D35F91340746035F910005060D8
:103F6000002934DBC1EB81218B08414AA2FB0323EA
:103F70005B09404A1360404B994203D9134640F213
:103F8000FF321A6084EAE473A3EBE4739BB2394A0C
:103F9000126802FB03F31B0B33490B810028B8BFE7
:103FA000404280B200FB02F2120B2E4B1A81002C11
:103FB0000FDC002C2ADB314C002220212046FDF7AB
:103FC000B7FE002210212046FDF7B2FE0CE0494268
:103FD000C8E72A4C012220212046FDF7A9FE002235
:103FE00010212046FDF7A4FE1E4B5B68002B19DC58
:103FF000002B2BDB214C002208212046FDF798FEE8
:10400000002204212046FDF793FE16E01B4C0022FF
:1040100020212046FDF78CFE012210212046FDF7CD
:1040200087FEE1E7154C012208212046FDF780FEBE
:10403000002204212046FDF77BFE114B1B680A4A33
:1040400012891A64074A1289DA6370BD0B4C002288
:1040500008212046FDF76CFE012204212046FDF7D1
:1040600067FEEAE7740900208009002070E4000878
:10407000AD79461370090020FF8F1A000008014037
:1040800098070020024A0349034800F0C9B800BF5E
:104090000C0000202D820008200000200C4B4168FD
:1040A00010B59942044601D004F0C0F8A168094B4C
:1040B000994202D0204604F0B9F8E168064B9942D3
:1040C00004D02046BDE8104004F0B0B810BD00BFD9
:1040D0008C090020F40900205C0A00202DE9F84337
:1040E00000250423304C314A3149DFF8C890DFF80D
:1040F000C880324F324E116004F15C00294608221C
:10410000C4E90335C4E90055C4E90555A5606566F1
:1041100000F058F904F15800C4E90749C4E90987D7
:10412000E66200F021FA274B2946082204F1C40078
:104130006367C4E91A55C4E91E552567C4F8CC5015
:10414000C4F8805000F03EF904F1680304F1C000A7
:10415000C4F88430C4E92298C4E9247600F004FA53
:10416000194B294604F596700822C4F8DC30C4E9DE
:104170003455C4E93855C4F8D850C4F83451C4F89B
:10418000E85000F01FF904F1D003C4E93D87C4F8FA
:10419000F09004F59470C4F8FC60C4F8EC30BDE80D
:1041A000F84300F0E1B900BF8C090020C40A0020E8
:1041B00085400008BD420008E5420008254300088C
:1041C00049430008090001001200020010B504462E
:1041D0000A4800F0CDF9636B23B9094B094A1B6803
:1041E000626323B1BDE81040044800F0C3B9FFF793
:1041F00075FFBDE81040014800F0BCB9D40A0020AA
:10420000C40A00209D400008014800F0B1B900BF79
:10421000D40A0020014800F0ADB900BFD40A002044
:104220002DE9F8434FF0000980460F461646D6E9BF
:104230000154013D10D4A389012B08D9B4F90E30E3
:10424000013304D021464046B84749EA0009013D00
:104250006B1C04F16804EED13668002EE7D14846A5
:10426000BDE8F8830EB44FF40172F0B500269CB09F
:1042700021AD55F8047BADF814201B9602900690F2
:1042800000F07AF94FF6FF7204460A4B0A49ADF87E
:1042900016200A933A462B46086802A90E961396F2
:1042A00001950394079402F053FB1CB0BDE8F04065
:1042B00003B07047E14200081800002010B50C461A
:1042C000B1F90E1000F0F6F8002803DB236D03446B
:1042D000236510BDA38923F48053A38110BD00BFC3
:1042E000002070472DE9F0410C46B1F90C101F4633
:1042F000CB05054616460BD421F48051A1813B46DF
:1043000032462846B4F90E10BDE8F04100F0E8B896
:10431000B4F90E100223002200F0B6F8B4F90C1024
:10432000EAE700BF10B50C46B1F90E1000F0ACF88A
:10433000B4F90C30421C0EBF23F4805343F4805375
:104340002065A38110BD00BFB1F90E1000F08AB83E
:1043500030B51B4C002924689BB02BDB4FF00005C7
:10436000009004904FF402701995ADF80C004FF6D0
:10437000FF7511D001390291059120466946ADF8CB
:104380000E5000F04FFD421C01DA8B232360002207
:10439000009B1A701BB030BD029105912046694602
:1043A000ADF80E5000F03EFD431C01DA8B23236074
:1043B0001BB030BD8B234FF0FF302360F8E700BF08
:1043C0001800002070B5860747D0541E002A3ED042
:1043D0000346CAB201E0013C39D303F8012B9D0723
:1043E000F9D1032C2CD9CDB205EB05250F2C1A469B
:1043F00005EB054534D9A4F1100C2CF00F0603F1A0
:10440000100EB6444FEA1C1CC2E90055C2E9025521
:1044100010327245F8D10CF1010214F00C0F03EBCD
:10442000021204F00F0C13D0ACF1040323F00303C9
:104430000433134442F8045B9342FBD10CF00304B1
:104440002CB1C9B21C4403F8011BA342FBD170BDBF
:1044500064461346002CF4D1F9E703461446C0E73E
:10446000A446E1E7002238B5064D044608462A6016
:10447000FFF7B4F9431C00D038BD2B68002BFBD0EC
:10448000236038BDC80A002038B50C46114600220A
:104490008446074D20462A601A466446FFF7A8F96D
:1044A000431C00D038BD2B68002BFBD0236038BDE7
:1044B000C80A002038B50C46114600228446074D34
:1044C00020462A601A466446FFF76AF9431C00D06A
:1044D00038BD2B68002BFBD0236038BDC80A0020F4
:1044E00038B50C46114600228446074D20462A6006
:1044F0001A466446FFF764F9431C00D038BD2B68A8
:10450000002BFBD0236038BDC80A0020014B18687F
:10451000704700BF1800002070B50F4B0F4DAB4225
:10452000A3EB050607D00024B61055F8043B013470
:104530009847A642F9D809F07DFF094D094B5E1B4B
:10454000AB424FEAA60606D0002455F8043B0134DE
:104550009847A642F9D870BD605D0108605D01080A
:10456000605D0108685D0108704700BF704700BFCB
:10457000704700BF704700BF20F0030110F0030038
:10458000C0F1000051F8043B00F1040C4FEACC0CE0
:104590006FF000021CBF22FA0CF213434FF0010C23
:1045A0004CEA0C2C4CEA0C4CA3EB0C0222EA030262
:1045B00012EACC1204BF51F8043B0430F4D0C2F12B
:1045C000000102EA0102B2FA82F2C2F11F0200EB1C
:1045D000D2007047024B13B1024800F005B8704793
:1045E00000000000158B0008002301461A461846FB
:1045F00004F038BB2DE9F84306460820894604F04C
:104600009DFA0546DFF89880304600F0FFFBD8F8A9
:1046100008305F6827F00307A7F11104A4EB090431
:104620002C44B4FBF5F4013C05FB04F4A54208DC82
:104630000021304604F05CFAD8F808303B44984238
:1046400005D0304600F0E8FB0020BDE8F883304696
:10465000614204F04DFA01300FD0124AD8F8083008
:104660003F1B47F001075F60136830461B1B136058
:1046700000F0D2FB0120BDE8F8830021304604F0B1
:1046800037FAD8F80820831A0F2BDADD43F001033C
:104690005360054B03491B68C01A0860D1E700BF8F
:1046A00070010020DC0A00206401002000297CD079
:1046B000F8B50C46064600F0A9FB54F8043C764FCA
:1046C000A4F1080523F001016818D7F808C0426872
:1046D000844522F0030200F08380DB07426000EB98
:1046E000020C33D454F8084CDCF804302D1B214460
:1046F000AC6807F1080C644503F0010364D0D5F8F9
:104700000CE0C4F80CE0CEF80840002B00F08180EB
:1047100041F001036B600160B1F5007F22D20122FC
:10472000CB0849098A40796801330A437A6057F80F
:10473000331007EBC302083AC5E9021247F83350B9
:10474000CD603046BDE8F84000F066BBDCF80430D0
:10475000DB072BD541F00103B1F5007F44F8043CA1
:104760000160DCD3B1F5206F4FEA512353D28B099E
:1047700003F1390003F13802C300F818FB58083878
:10478000984203D161E09B68984204D05A6822F0B5
:1047900003028A42F7D8D868C5E9023085603046FE
:1047A000DD60BDE8F84000F037BB7047114407F109
:1047B000080C836863453FD0C268DA60936041F0BB
:1047C00001036B606950A7E7002B5FD10A44D0E971
:1047D0000213CB60996042F001036B60AA50B0E70E
:1047E0000A44D90707D454F8083CED1A1A44D5E90D
:1047F0000213CB60996042F001036B60274BBD60F0
:104800001B6893429DD8264B30461968FFF7F2FE8D
:1048100097E71144CDE7142B08D9542B1DD80B0B67
:1048200003F16F0003F16E02C300A6E703F15C0021
:1048300003F15B02C300A0E741F00103C7E904559F
:10484000C5E902CC6B6069507BE70121921001FA47
:1048500002F279680A437A609EE7B3F5AA7F06D828
:10486000CB0B03F1780003F17702C30085E740F238
:104870005452934206D88B0C03F17D0003F17C0265
:10488000C3007AE74FF47E737E2276E741F001039E
:104890006B60016055E700BF7001002068010020D7
:1048A0000C0B00202DE9F04F01F10B05162D0646EB
:1048B00083B024D8102900F2AD8000F0A7FA1025AB
:1048C00018234FF0020CB84F3B445C68A3F1080278
:1048D000944200F01D8130466368E268A16823F0CD
:1048E0000303CA60234491605A68083442F001020D
:1048F0005A6000F091FA204603B0BDE8F08F35F021
:10490000070500F18780A94200F2848000F07EFA5A
:10491000B5F5FC7FC0F06F816B0A7FD0042B00F2ED
:104920001E81AB0903F1390C03F1380E4FEACC00BC
:104930009D4F384444680838A04207D10DE0002A52
:10494000E16880F2DF80884207D00C46636823F07C
:1049500003035A1B0F2AF2DDF446DFF850823C694C
:10496000444500F0BC80636823F00309A9EB05030C
:104970000F2B00F34581002BC7E9048880F22F81BB
:10498000B9F5007FD7F804E080F0C98001234FEA31
:10499000D9014FEA5919194403FA09F357F831209C
:1049A0004EEA030E07EBC103083BA260E360C7F8C1
:1049B00004E047F83140D46001204FEAAC0398404E
:1049C000704532D810EA0E0F07D12CF0030C4000CE
:1049D00010EA0E0F0CF1040CF9D007EBCC0AD64606
:1049E000E146DEF80C300BE059681C4621F003016B
:1049F0004A1B0F2ADB6800F3BF80002A80F2E280A6
:104A00009E45F1D109F1010919F0030F0EF1080ECD
:104A1000E7D11FE10C23336000246CE74FF40070F2
:104A20004FF0400C4FF03F0E82E7BC68636823F004
:104A30000309A94503D3A9EB05030F2B52DC5C4BFB
:104A400008201B6803F1100804EB0903009304F02D
:104A500075F8584A83461368A844013305D008F115
:104A6000FF388044434203EA08084146304604F0D8
:104A70003FF8B0F1FF3F82464E4A00F0DC8004EB85
:104A80000903834200F2D5804B4B0BF1FF311868CC
:104A900040448446186040F0FB801AEA010F40F061
:104AA000F780D7F808A0C84448F00102CAF80420EB
:104AB0005446424B1968814238BF1860404B196810
:104AC000814238BF186022F00308A845A8EB05030F
:104AD00001D30F2B06DC304600F09EF99CE7D7F897
:104AE00004E069E7621943F0010345F001056560E0
:104AF0003046BA600834536000F08EF9204603B0A7
:104B0000BDE8F08FA2683046D16023448A60EBE6AE
:104B1000DC68A3427FF4DFAE0CF1020C1DE7B9F5AF
:104B2000206F4FEA59227DD3142A00F2118102F13D
:104B30005C03DB005B32F918FB580839994203D15A
:104B4000ECE09B68994204D05A6822F003024A457F
:104B5000F7D8D968C4E902318C60DC602CE7142BEB
:104B60006CD9542B00F2FD802B0B03F16F0C03F179
:104B70006E0E4FEACC00DBE6D4F808C0304666196A
:104B800045F001056560CCF80C30C3F808C042F070
:104B90000103C7E90466C6E902887360625000F049
:104BA0003BF90834A7E600BF70010020780100201F
:104BB0000C0B002064010020DC0A0020080B002000
:104BC000040B002021444A68304642F001024A604A
:104BD00054F8082FD3609A6000F01EF98BE6A144C8
:104BE000D9F80430304643F00103C9F8043000F02E
:104BF00013F908347FE64FEAD50C05F1080362E6A5
:104C0000621943F0010145F0010565603046C7E9CE
:104C10000422C2E90288516044F8093000F0FCF82F
:104C2000083468E64FEA991202F13903DB003832A2
:104C300081E7BC4224D0BC68626844E703F15C0CA5
:104C400003F15B0E4FEACC0072E65AF8083953457F
:104C500040F0D8801CF0030F0CF1FF3CF5D17B68CD
:104C600023EA00037B60400098423FF6DEAE18B9AD
:104C7000DBE6400009F104091842FAD0CC46ACE664
:104C8000614B0BF1FF31186808EB000CC3F800C052
:104C90001068013070D004EB0902AAEB02026244F2
:104CA0001A601AF00702CDE9002340D0C2F10802D1
:104CB0009244D04408EA01005A44121A02EA010B55
:104CC0005946304603F014FF421C019B71D0A0EB03
:104CD0000A0000EB0B08186848F001025844BC4277
:104CE000C7F808A01860CAF804203FF4E1AEB9F193
:104CF0000F0F44D94FF0050C6168A9F10C0222F0A6
:104D0000070201F00101114361600F2A04EB020167
:104D1000C1E901CC55D8DAF80420C9E60120921087
:104D200000FA02F24EEA020EC7F804E012E70AEBBC
:104D300008020A40ABEB020202EA010B5946304678
:104D400003F0D6FE431C019BC1D1DDF800B0C2E7E1
:104D5000542A18D84FEA193202F16F03DB006E3281
:104D6000E9E6B3F5AA7F18D8EB0B03F1780C03F151
:104D7000770E4FEACC00DBE5C2F800A091E70123F3
:104D8000CAF80430A7E6B2F5AA7F25D84FEAD9328F
:104D900002F17803DB007732CDE640F254529342C1
:104DA00025D8AB0C03F17D0C03F17C0E4FEACC004F
:104DB000BEE5009A4FF0000B083A9044A8EB0A08B1
:104DC00089E7304604F108010093FFF76FFC009B70
:104DD000D7F808A018689EE740F254539A420DD8BD
:104DE0004FEA994202F17D03DB007C32A3E64FF4E7
:104DF0007E704FF07F0C4FF07E0E99E54FF47E737E
:104E00007E2298E67B682EE7DC0A00200148FFF747
:104E1000AFBB00BFCC0A00200148FFF7ABBB00BF0F
:104E2000CC0A00202DE9F04FDDB00C4691460D91E3
:104E30000F93834603F058FE036818461A93FFF752
:104E40009BFB0822189000212CA8FFF7BBFAA3892E
:104E5000180603D52369002B00F0158700230024D2
:104E60009E46CDE93133002333AACDE91634DA4624
:104E700014464D46CDE91BEE3092CDF864E0CDF8F6
:104E800080E0CDF874E0CDF828E0CDF848E02F467A
:104E90006E4BD3F8E46003F021FE0DF1B00C034635
:104EA0003A46504628A9CDF800C0B047002800F087
:104EB0009F80C0F29580289B252B01D00744E7E70F
:104EC000B7EB0508064640F0978000224FF0FF330D
:104ED000934609937B787E1C8DF897200B92994618
:104EE0000136A9F120035A2B00F2B280DFE813F05B
:104EF000F302B000B000EF02B000B000B000FD025D
:104F0000B000B0006A003502B0002702D202B00043
:104F1000CE025B005B005B005B005B005B005B0044
:104F20005B005B00B000B000B000B000B000B000AB
:104F3000B0002801B000AA013E0228012801280182
:104F4000B000B000B000B0003A02B000B000A8025B
:104F5000B000B000B000D001B000BC02B000B000A2
:104F60008A06B000B000B000B000B000B000B000E1
:104F7000B0002801B000AA0101022801280128017F
:104F80002B0201027400B0006402B0005502AF06AB
:104F90006E027400B000D0017200AC06B000B00028
:104FA000B206B00072000022A9F1300316F8019B8E
:104FB00002EB820203EB4202A9F13003092BF5D97F
:104FC0000B928EE70F9B53F8042B002A0B920F9342
:104FD000C0F2B281337882E733784BF0200B7EE762
:104FE000082200212CA8FFF7EDF9012007444FE724
:104FF000B7EB0508064610D0329BC4E9005843447D
:105000003293319B0133072B319315DC08340A9B13
:1050100043440A93002E7FF458AF329B002B41F09B
:105020005E810D9B9B8903F04003002B41F0808340
:105030000A985DB0BDE8F08F50460D9930AA03F094
:10504000C9F80028EDD133ACE1E700BF78050020B6
:105050001096B9F1000FE0D0012300228DF80C91D9
:10506000069343AD8DF897200C93CDE913220E9251
:10507000099211921BF0020302D0069902310691A7
:105080001BF08408329E05D10B9906980F1A002F49
:1050900000F39B806AB101226260319A01360132CD
:1050A0000DF19701072A32963192216000F3D883DF
:1050B000083463B102236360319B0236013326AAB0
:1050C000072B32963193226000F3BF830834B8F186
:1050D000800F00F0BF82099B0C9A9F1A002F00F3EB
:1050E000F9821BF4807F40F01E820C9B25601E44D9
:1050F0006360319B32960133072B319300F33F837A
:1051000008341BF0040F05D00B9B069A9D1A002D46
:1051100000F3B383DDE90A3206998A42ACBF9B18DB
:105120005B180A93002E40F00883002331930E9BF6
:105130001BB150460E99FFF7B9FA33AC109DA6E6A5
:105140000F9B1096073323F00703F3E802670F93D2
:1051500027F000431F931E964FF0FF32DDE91E013A
:10516000B24BCDE91667FCF777F8002840F0F484DD
:10517000DDE91E014FF0FF32AC4BFCF74FF8002881
:1051800040F0EA840022002330463946FCF73CF820
:10519000002840F0B2879DF8972000210320A44DFD
:1051A000A44B2BF0800B0E910690B9F1470FD8BF9E
:1051B0001D46CDE9131109910C901191002A3FF47D
:1051C00059AF069B0133069354E7102F319A41F3F0
:1051D0000D82DFF864C2214630460D9C2E46CDF884
:1051E00054C06546219304E0103F102F01F10801DF
:1051F00016DD102301321030072ACDE931200D6071
:105200004B60F1DD2146504630AA02F0E3FF002852
:1052100040F09B82DDE93120103F102F33A9E8DCFC
:1052200035460C460646219B013215993E44072A15
:10523000CDE931262160676000F381869DF89720D3
:10524000083427E70F9BB9F1430F109603F10406CA
:1052500003D01BF0100F00F00185082200212EA8BA
:10526000FFF7B0F80F9A43AD2EAB294650461268AF
:1052700006F0E2FE034601330C9001F054820C9BD1
:1052800023EAE373069300220F968DF89720ECE64D
:1052900000230F9F109657F8045B8DF89730002D70
:1052A00000F00085B9F1530F00F094861BF0100355
:1052B000119340F08F86099B002BC1F21B801A4688
:1052C0002846119903F048FC0E90002801F08182D5
:1052D0000E9B11995B1B0C9323EAE3734FF0730948
:1052E000CDE913119DF897200F97099106930E9120
:1052F00064E71BF0200F10963ED00F9B073323F07E
:1053000007031846596850F8083B0A460F900029D1
:10531000C0F2CA8309990029C0F2888253EA0201C7
:105320002BF0800740F08382099A002A40F08482A3
:10533000BB460C925CAD64E10B9B5B420B933378F4
:105340004BF0040BCBE53378682B03BF73784BF439
:10535000007B01364BF0400BC1E52B238DF89730D5
:105360003378BCE533784BF0080BB8E54BF0100B05
:105370001BF0200F1096C0D10F9A1BF0100F52F89F
:10538000043B0F9240F0C2831BF0400F00F0BA8341
:1053900043F3C03211461BB2B9E71BF0200F109641
:1053A00000F0C5830F9B0A9A1B681A60D2175A60D7
:1053B0000F9B04330F93C1E633786C2B03BF7378D4
:1053C0004BF0200B01364BF0100B88E547F630030D
:1053D0000F9AADF8983052F8043B02210F924FF02B
:1053E00078090022154810964BF00207199000200A
:1053F000099D8DF89700002DC0F2EC8053EA020061
:1054000027F0800B40F0E580002D40F0D285002988
:1054100040F0538317F001030C9300F071833023A5
:105420000DF26F158DF86F31EBE000BFFFFFEF7FDE
:10543000C4EC0008C0EC000808EF0008D0EC00083D
:1054400010964BF0100B1BF0200200F012830F9B04
:10545000073323F0070319465A6851F8083B0F91A8
:1054600000212BF48067C2E710964BF0100717F06D
:10547000200200F00B830F9B0121073323F0070369
:1054800018465A6850F8083B0F90B0E733784BF055
:10549000800B24E5314611F8019BB9F12A0F01F088
:1054A0002882A9F13003092B98BF002201F2A280C3
:1054B00011F8019B02EB820203EB4202A9F13003D7
:1054C000092BF5D942EAE2730E46099309E53378D0
:1054D0004BF0010B03E59DF897203378002A7FF409
:1054E000FEAC20228DF89720F9E4504603F0FCFA38
:1054F000436818461D93FFF73FF820900746504633
:1055000003F0F2FA83681B93002F3FF463AD1B9AFC
:105510003378002A3FF4E3AC1278002A3FF4DFAC82
:105520004BF4806BDBE4B9F1650F40F33781DDE9C3
:10553000160100220023FBF75DFE002800F0D88151
:1055400001236360319B934A01330136072B329666
:105550003193226000F332850834279B129A9342DC
:1055600080F2C982189B1A9A1E44C4E90023319B19
:1055700032960133072B319300F37A830834129B60
:105580005D1E002D7FF7BDAD102D319B40F3EB80EC
:10559000DFF804921027DDF83480CDF8549004E051
:1055A0000834103D102D40F3E08001331036072BF6
:1055B000C4E90097CDE93136F2DD4146504630AAC4
:1055C00002F008FE002840F0C080DDE9313633AC3F
:1055D000E7E75F46012900F02A8102295CAD1ED170
:1055E000199803F00F01415C1B0943EA0273120989
:1055F00005F8011D53EA0201F3D1BB465CAB5B1B0E
:105600000C93099A0C9900238A42B8BF0A46CDE947
:10561000133306920E939DF897201193CEE503F075
:105620000701DB0843EA4273D208303153EA02062D
:10563000284605F8011DF2D1FB07DED53029DCD064
:105640003023023805F8013C5CAB1B1ABB4605460B
:105650000C93D6E70B9B069A9F1A002F7FF73BAD62
:10566000102F319B41F35B804B48224631464FF06F
:10567000100806460D9C159004E0103F102F02F113
:10568000080214DD01331031072BC2E90068CDE9AF
:105690003131F2DD2146504630AA02F09BFD002850
:1056A00053D1DDE93131103F102F33AAEADC144623
:1056B0000E460133159A3E44072BCDE93136226060
:1056C000676000F3C084099B0C9A08349F1A002F6E
:1056D0007FF707AD304A102F319B159221DD3246FE
:1056E0004FF010082E460D9D04E0103F102F04F1DE
:1056F000080414DD013328491032072BC4E90018CF
:10570000CDE93132F1DD2946504630AA02F062FD82
:10571000D8B9DDE93132103F102F33ACEADC354621
:1057200016460133159A3E44072BCDE931362260E7
:10573000676000F392810834D3E450460D9930AA93
:1057400002F048FD00283FF4F0ACD3460E9B002B3E
:105750003FF467AC58460E99FEF7A8FF0D9B9B8956
:1057600003F0400361E40C4A1592159A01332E446C
:10577000072B22606560CDE931367FF7C1AC50461A
:105780000D9930AA02F026FD0028DED1329E33ACFE
:10579000B7E400BF00ED0008F8EE0008129B319F4F
:1057A000012B06F1010607F1010704F1080940F396
:1057B00010810123072FCDE931762560636000F366
:1057C0008081189B01371A9A1E44072FC9E90023CC
:1057D000CDE9317600F3828109F10809129B00229C
:1057E000DDE916015C1E0023FBF704FD002840F0F4
:1057F0000981013701352644072FCDE93176C9F8F3
:105800000050C9F8044000F3F08009F108091C9B1E
:1058100001371E44C9F80430072F2AABCDE9317691
:10582000C9F80030ABDC09F108046AE45F460A2BD2
:1058300072F1000180F0258330338DF86F31012340
:10584000BB460C930DF26F15DBE650460D9930AA5E
:1058500002F0C0FC00287FF478AF329E33AC36E40F
:1058600050460D9930AA159302F0B4FC00287FF43D
:105870006CAF329E159B33AC1BE4102D319B40F373
:105880003187DFF8CC821027DDF83490CDF85480D2
:1058900004E0103D102D04F1080415DD013310362D
:1058A000072BC4E90087CDE93136F2DD4946504681
:1058B00030AA02F08FFC00287FF447AFDDE93136D3
:1058C000103D102D33ACE9DC0133159A2E44072B23
:1058D000C4E90025CDE931367FF71CAC50460D995F
:1058E00030AA02F077FC00287FF42FAF329E11E43B
:1058F0002799002940F33383DDE911839845A8BF38
:105900009846B8F1000F0ADD319B46440133072B5E
:10591000C4E900583296319300F33E860834119F53
:10592000B8F1000FA8BFA7EB0807002F00F3CB8149
:10593000DDF844901BF4806FA94440F0EA81279B76
:10594000129A9342C0F271821BF0010F40F06D82F7
:10595000129AAF18A7EB0907D51AAF42A8BF2F4676
:10596000002F0BDD319B3E440133072BC4F8009020
:1059700067603296319300F385860834002FA8BF04
:10598000ED1B002D7FF7BDAB102D319B7FF7EBAEEC
:10599000DFF8C0911027DDF83480CDF8549004E092
:1059A0000834103D102D7FF7E0AE01331036072B81
:1059B000C4E90097CDE93136F2DD4146504630AAC0
:1059C00002F008FC00287FF4C0AEDDE9313633ACCC
:1059D000E7E71BF0010F7FF4ECAE0123072FCDE9C1
:1059E0003176256063607FF712AF50460D9930AA7B
:1059F00002F0F0FB00287FF4A8AEDDE931760DF16E
:105A0000CC0904E7129B012B7FF701AF112B40F368
:105A10007F87504BCDF824B010259B46DDF83480AD
:105A2000159305E009F10809103C102C40F33C8364
:105A300001371036072FC9E900B5CDE93176F1DD20
:105A40004146504630AA02F0C5FB00287FF47DAEE7
:105A5000DDE931760DF1CC09E6E750460D9930AA23
:105A600002F0B8FB00287FF470AE329E33ACFFF733
:105A700038BB0F991BF0100051F8043B55D11BF0B7
:105A800040054ED002460F919BB2E9E40F9917F002
:105A9000100051F8043B41D117F040053AD00F9166
:105AA000024601219BB2A2E45B425F464FF02D000B
:105AB0004FF0010162EB42029AE4099B5CAD0C934A
:105AC0009FE550460D9930AA02F084FB00287FF430
:105AD0003CAEDDE931760DF1CC0972E650460D9908
